{
  "contractName": "DAO",
  "abi": [
    {
      "inputs": [
        {
          "internalType": "address",
          "name": "_token",
          "type": "address"
        }
      ],
      "stateMutability": "nonpayable",
      "type": "constructor"
    },
    {
      "inputs": [
        {
          "internalType": "bytes32",
          "name": "",
          "type": "bytes32"
        }
      ],
      "name": "proposals",
      "outputs": [
        {
          "internalType": "address",
          "name": "author",
          "type": "address"
        },
        {
          "internalType": "bytes32",
          "name": "hash",
          "type": "bytes32"
        },
        {
          "internalType": "uint256",
          "name": "createdAt",
          "type": "uint256"
        },
        {
          "internalType": "uint256",
          "name": "votesYes",
          "type": "uint256"
        },
        {
          "internalType": "uint256",
          "name": "votesNo",
          "type": "uint256"
        },
        {
          "internalType": "enum DAO.Status",
          "name": "status",
          "type": "uint8"
        }
      ],
      "stateMutability": "view",
      "type": "function"
    },
    {
      "inputs": [
        {
          "internalType": "address",
          "name": "",
          "type": "address"
        }
      ],
      "name": "shares",
      "outputs": [
        {
          "internalType": "uint256",
          "name": "",
          "type": "uint256"
        }
      ],
      "stateMutability": "view",
      "type": "function"
    },
    {
      "inputs": [],
      "name": "token",
      "outputs": [
        {
          "internalType": "contract IERC20",
          "name": "",
          "type": "address"
        }
      ],
      "stateMutability": "view",
      "type": "function"
    },
    {
      "inputs": [],
      "name": "totalShares",
      "outputs": [
        {
          "internalType": "uint256",
          "name": "",
          "type": "uint256"
        }
      ],
      "stateMutability": "view",
      "type": "function"
    },
    {
      "inputs": [
        {
          "internalType": "address",
          "name": "",
          "type": "address"
        },
        {
          "internalType": "bytes32",
          "name": "",
          "type": "bytes32"
        }
      ],
      "name": "votes",
      "outputs": [
        {
          "internalType": "bool",
          "name": "",
          "type": "bool"
        }
      ],
      "stateMutability": "view",
      "type": "function"
    },
    {
      "inputs": [
        {
          "internalType": "uint256",
          "name": "amount",
          "type": "uint256"
        }
      ],
      "name": "deposit",
      "outputs": [],
      "stateMutability": "nonpayable",
      "type": "function"
    },
    {
      "inputs": [
        {
          "internalType": "uint256",
          "name": "amount",
          "type": "uint256"
        }
      ],
      "name": "witdraw",
      "outputs": [],
      "stateMutability": "nonpayable",
      "type": "function"
    },
    {
      "inputs": [
        {
          "internalType": "bytes32",
          "name": "proposalHash",
          "type": "bytes32"
        }
      ],
      "name": "createProposal",
      "outputs": [],
      "stateMutability": "nonpayable",
      "type": "function"
    },
    {
      "inputs": [
        {
          "internalType": "bytes32",
          "name": "proposalHash",
          "type": "bytes32"
        },
        {
          "internalType": "enum DAO.Side",
          "name": "side",
          "type": "uint8"
        }
      ],
      "name": "vote",
      "outputs": [],
      "stateMutability": "nonpayable",
      "type": "function"
    }
  ],
  "bytecode": "0x608060405234801561001057600080fd5b50604051610dce380380610dce8339818101604052602081101561003357600080fd5b810190808051906020019092919050505080600460006101000a81548173ffffffffffffffffffffffffffffffffffffffff021916908373ffffffffffffffffffffffffffffffffffffffff16021790555050610d39806100956000396000f3fe608060405234801561001057600080fd5b50600436106100935760003560e01c8063b404930e11610066578063b404930e146101ce578063b6b55f25146101fc578063c9a28cb91461022a578063ce7c2ac214610265578063fc0c546a146102bd57610093565b80631db5ade8146100985780632542bf06146100fc57806332ed5b121461012a5780633a98ef39146101b0575b600080fd5b6100e4600480360360408110156100ae57600080fd5b81019080803573ffffffffffffffffffffffffffffffffffffffff169060200190929190803590602001909291905050506102f1565b60405180821515815260200191505060405180910390f35b6101286004803603602081101561011257600080fd5b8101908080359060200190929190505050610320565b005b6101566004803603602081101561014057600080fd5b810190808035906020019092919050505061054f565b604051808773ffffffffffffffffffffffffffffffffffffffff16815260200186815260200185815260200184815260200183815260200182600281111561019a57fe5b8152602001965050505050505060405180910390f35b6101b86105b8565b6040518082815260200191505060405180910390f35b6101fa600480360360208110156101e457600080fd5b81019080803590602001909291905050506105be565b005b6102286004803603602081101561021257600080fd5b81019080803590602001909291905050506107a2565b005b6102636004803603604081101561024057600080fd5b8101908080359060200190929190803560ff1690602001909291905050506108ef565b005b6102a76004803603602081101561027b57600080fd5b81019080803573ffffffffffffffffffffffffffffffffffffffff169060200190929190505050610ca1565b6040518082815260200191505060405180910390f35b6102c5610cb9565b604051808273ffffffffffffffffffffffffffffffffffffffff16815260200191505060405180910390f35b60016020528160005260406000206020528060005260406000206000915091509054906101000a900460ff1681565b683635c9adc5dea00000600260003373ffffffffffffffffffffffffffffffffffffffff1673ffffffffffffffffffffffffffffffffffffffff1681526020019081526020016000205410156103c1576040517f08c379a0000000000000000000000000000000000000000000000000000000008152600401808060200182810382526024815260200180610ce06024913960400191505060405180910390fd5b6000801b600080838152602001908152602001600020600101541461044e576040517f08c379a00000000000000000000000000000000000000000000000000000000081526004018080602001828103825260168152602001807f70726f706f73616c20616c72656164792065786973740000000000000000000081525060200191505060405180910390fd5b6040518060c001604052803373ffffffffffffffffffffffffffffffffffffffff16815260200182815260200142815260200160008152602001600081526020016000600281111561049c57fe5b81525060008083815260200190815260200160002060008201518160000160006101000a81548173ffffffffffffffffffffffffffffffffffffffff021916908373ffffffffffffffffffffffffffffffffffffffff1602179055506020820151816001015560408201518160020155606082015181600301556080820151816004015560a08201518160050160006101000a81548160ff0219169083600281111561054457fe5b021790555090505050565b60006020528060005260406000206000915090508060000160009054906101000a900473ffffffffffffffffffffffffffffffffffffffff16908060010154908060020154908060030154908060040154908060050160009054906101000a900460ff16905086565b60035481565b80600260003373ffffffffffffffffffffffffffffffffffffffff1673ffffffffffffffffffffffffffffffffffffffff168152602001908152602001600020541015610673576040517f08c379a000000000000000000000000000000000000000000000000000000000815260040180806020018281038252600f8152602001807f62616c616e636520746f6f206c6f77000000000000000000000000000000000081525060200191505060405180910390fd5b80600260003373ffffffffffffffffffffffffffffffffffffffff1673ffffffffffffffffffffffffffffffffffffffff1681526020019081526020016000206000828254039250508190555080600360008282540392505081905550600460009054906101000a900473ffffffffffffffffffffffffffffffffffffffff1673ffffffffffffffffffffffffffffffffffffffff1663a9059cbb33836040518363ffffffff1660e01b8152600401808373ffffffffffffffffffffffffffffffffffffffff16815260200182815260200192505050602060405180830381600087803b15801561076357600080fd5b505af1158015610777573d6000803e3d6000fd5b505050506040513d602081101561078d57600080fd5b81019080805190602001909291905050505050565b80600260003373ffffffffffffffffffffffffffffffffffffffff1673ffffffffffffffffffffffffffffffffffffffff1681526020019081526020016000206000828254019250508190555080600360008282540192505081905550600460009054906101000a900473ffffffffffffffffffffffffffffffffffffffff1673ffffffffffffffffffffffffffffffffffffffff166323b872dd3330846040518463ffffffff1660e01b8152600401808473ffffffffffffffffffffffffffffffffffffffff1681526020018373ffffffffffffffffffffffffffffffffffffffff1681526020018281526020019350505050602060405180830381600087803b1580156108b057600080fd5b505af11580156108c4573d6000803e3d6000fd5b505050506040513d60208110156108da57600080fd5b81019080805190602001909291905050505050565b6000806000848152602001908152602001600020905060001515600160003373ffffffffffffffffffffffffffffffffffffffff1673ffffffffffffffffffffffffffffffffffffffff168152602001908152602001600020600085815260200190815260200160002060009054906101000a900460ff161515146109dc576040517f08c379a000000000000000000000000000000000000000000000000000000000815260040180806020018281038252600d8152602001807f616c726561647920766f7465640000000000000000000000000000000000000081525060200191505060405180910390fd5b6000801b600080858152602001908152602001600020600101541415610a6a576040517f08c379a00000000000000000000000000000000000000000000000000000000081526004018080602001828103825260168152602001807f70726f706f73616c20616c72656164792065786973740000000000000000000081525060200191505060405180910390fd5b62093a80816002015401421115610ae9576040517f08c379a00000000000000000000000000000000000000000000000000000000081526004018080602001828103825260128152602001807f766f74696e6720706572696f64206f766572000000000000000000000000000081525060200191505060405180910390fd5b60018060003373ffffffffffffffffffffffffffffffffffffffff1673ffffffffffffffffffffffffffffffffffffffff168152602001908152602001600020600085815260200190815260200160002060006101000a81548160ff02191690831515021790555060006001811115610b5e57fe5b826001811115610b6a57fe5b1415610c0857600260003373ffffffffffffffffffffffffffffffffffffffff1673ffffffffffffffffffffffffffffffffffffffff1681526020019081526020016000205481600301600082825401925050819055506032600354606483600301540281610bd557fe5b041115610c035760018160050160006101000a81548160ff02191690836002811115610bfd57fe5b02179055505b610c9c565b600260003373ffffffffffffffffffffffffffffffffffffffff1673ffffffffffffffffffffffffffffffffffffffff1681526020019081526020016000205481600401600082825401925050819055506032600354606483600401540281610c6d57fe5b041115610c9b5760028160050160006101000a81548160ff02191690836002811115610c9557fe5b02179055505b5b505050565b60026020528060005260406000206000915090505481565b600460009054906101000a900473ffffffffffffffffffffffffffffffffffffffff168156fe6e6f7420656e6f7567682073686172657320746f206372656174652070726f706f73616ca26469706673582212209360b46dc24c8c3f975575b382bee61f5590f79a2e5215018ce3de8c4cf3e7fc64736f6c63430007030033",
  "immutableReferences": {},
  "source": "pragma solidity ^0.7.3;\n\nimport '@openzeppelin/contracts/token/ERC20/IERC20.sol';\n\ncontract DAO {\n    enum Side { Yes, No }\n    enum Status { Undecided, Approved, Rejected }\n    struct Proposal {\n        address author;\n        bytes32 hash;\n        uint createdAt;\n        uint votesYes;\n        uint votesNo;\n        Status status;\n    }\n\n    mapping(bytes32 => Proposal) public proposals;\n    mapping(address => mapping(bytes32 => bool)) public votes;\n    mapping(address => uint) public shares;\n    uint public totalShares;\n    IERC20 public token;\n    uint constant CREATE_PROPOSAL_MIN_SHARE = 1000 * 10 ** 18;\n    uint constant VOTING_PERIOD = 7 days;\n\n    constructor(address _token) {\n        token = IERC20(_token);\n    }\n\n    function deposit(uint amount) external {\n        shares[msg.sender] += amount;\n        totalShares += amount;\n        token.transferFrom(msg.sender, address(this), amount);\n    }\n\n    function witdraw(uint amount) external {\n        require(shares[msg.sender] >= amount, 'balance too low');\n        shares[msg.sender] -= amount;\n        totalShares -= amount;\n        token.transfer(msg.sender, amount);\n    }\n\n    function createProposal(bytes32 proposalHash) external {\n        require(shares[msg.sender] >= CREATE_PROPOSAL_MIN_SHARE, 'not enough shares to create proposal');\n        require(proposals[proposalHash].hash == bytes32(0), 'proposal already exist');\n        proposals[proposalHash] = Proposal(msg.sender, proposalHash, block.timestamp, 0, 0, Status.Undecided);\n    }\n\n    function vote(bytes32 proposalHash, Side side) external {\n        Proposal storage proposal = proposals[proposalHash];\n        require(votes[msg.sender][proposalHash] == false, 'already voted');\n        require(proposals[proposalHash].hash != bytes32(0), 'proposal already exist');\n        require(block.timestamp <= proposal.createdAt + VOTING_PERIOD, 'voting period over');\n        votes[msg.sender][proposalHash] = true;\n        if(side == Side.Yes) {\n            proposal.votesYes += shares[msg.sender];\n            if(proposal.votesYes * 100 / totalShares > 50) {\n                proposal.status = Status.Approved;\n            }\n        } else {\n            proposal.votesNo += shares[msg.sender];\n            if(proposal.votesNo * 100 / totalShares > 50) {\n                proposal.status = Status.Rejected;\n            }\n        }\n    }\n}",
  "sourcePath": "/Users/andrewrudnick/Documents/GitHub/defi-practice/dao/contracts/DAO.sol",
  "compiler": {
    "name": "solc",
    "version": "0.7.3+commit.9bfce1f6.Emscripten.clang"
  },
  "schemaVersion": "3.2.1",
  "updatedAt": "2021-01-11T18:10:15.199Z",
  "devdoc": {
    "kind": "dev",
    "methods": {},
    "version": 1
  },
  "userdoc": {
    "kind": "user",
    "methods": {},
    "version": 1
  }
}